:100000000C947F000C949C000C949C000C949C001D
:100010000C94CD0B0C94920B0C94530B0C94160B6C
:100020000C949C000C94ED0A0C94B00A0C94750A84
:100030000C949C000C94720C0C94990C0C944B0C2A
:100040000C94A1000C949C000C949C000C949C00BB
:100050000C949C00E106510661067106810691062A
:10006000A106B106C106D106000808081008180844
:1000700020082808300838088D0845084D0855081C
:100080005D0865086D0875087D08850888093A0AC5
:10009000E908FB093A0A3A0A3A0A3A0A3A0A3A0AD3
:1000A0003A0A2E093A0A3A0A3A0A3A0A3A0A3A0A3D
:1000B0003A0A3A0AC8093A0A3A0A3A0AB5093A0A19
:1000C0003A0A3A0A3A0A3A0A3A0A3A0A88093A0AC3
:1000D000E908FB093A0A3A0A3A0A3A0A3A0A3A0A93
:1000E0003A0A2E093A0A3A0A3A0A3A0A3A0A3A0AFD
:1000F0003A0A3A0AC8093A0A3A0A3A0AB5091124E8
:100100001FBECFE5D8E0DEBFCDBF13E0A0E6B0E074
:10011000E8EAFFE102C005900D92A038B107D9F7D7
:1001200023E0A0E8B3E001C01D92A93CB207E1F7CB
:100130000E9486040C94D20F0C9400008FE886B9BC
:100140000895E0918003F0918103309709F00995BB
:100150000895282F2695269526958770613009F4F5
:100160003FC008F45CC0623021F1633009F076C012
:1001700030E0220F331FF901E557FF4F0190F08166
:10018000E02D41E050E0BA0102C0660F771F8A956A
:10019000E2F7CB01962F9095408194239083F9014B
:1001A000ED56FF4F0190F081E02D9081892B8083E7
:1001B0000895E22FF0E0EE0FFF1FE557FF4F01908B
:1001C000F081E02D21E030E0A90102C0440F551F6D
:1001D0008A95E2F7CA0180959081892380830895EA
:1001E00030E0220F331FF901E557FF4F0190F081F6
:1001F000E02D41E050E0BA0102C0660F771F8A95FA
:10020000E2F7CB019081982B9083F901ED56FF4FD7
:100210000190F081E02D9081892B8083089530E05A
:10022000220F331FF901E557FF4F0190F081E02DB8
:1002300041E050E0BA0102C0660F771F8A95E2F7ED
:10024000CB019081982B9083F901ED56FF4F0190DF
:10025000F081E02D80959081892380830895CF934C
:10026000C0E009C0EC2FF0E0E05AFF4F60818C2F16
:100270000E94A900CF5FC032A8F3CF910895E82F64
:10028000E695E695E69587706130A9F4F0E0EE0F0B
:10029000FF1FED56FF4F0190F081E02D21E030E08F
:1002A000A90102C0440F551F8A95E2F7CA01908147
:1002B000892B80830895611115C0F0E0EE0FFF1FB8
:1002C000ED56FF4F0190F081E02D21E030E0A901D3
:1002D00002C0440F551F8A95E2F7CA0180959081AC
:1002E0008923808308958FEF0E94DF010895FF9294
:1002F0000F931F93CF93DF93C82F8B01D42F90655B
:10030000F92E0E94F2018F2D0E9415028C2F0E945F
:100310003F02C0E007C0F801EC0FF11D80810E9490
:100320003F02CF5FCD17B8F30E940E022FE788E39C
:1003300091E0215080409040E1F700C00000DF9143
:10034000CF911F910F91FF900895FF920F931F93EC
:10035000CF93DF93F82EEB01042F209731F1192F63
:1003600010650E94F201812F0E9415028F2D0E94BC
:100370003F020E940002812F0E942A02013108F0F0
:1003800000E110E005C0CE010E944B0221961F5FE4
:100390001017C8F30E940E022FE788E391E0215066
:1003A00080409040E1F700C00000DF91CF911F91A5
:1003B0000F91FF9008958FB780688FBF08958823AD
:1003C00014F0880F82B98CE080B981B18E7F81B939
:1003D00081B18D7F81B986B7806486BF86B784601E
:1003E00086BF089586B7806286BF86B7806886BF5D
:1003F00006B607FEFDCF81B1887F8830E1F708950A
:1004000086B7806286BF86B7806886BF06B607FE5D
:10041000FDCF81B1887F8031E1F7089586B7806193
:1004200086BF86B7806886BF0895882394F0880FBA
:1004300083B983B18E7F83B986B78F7D86BF86B738
:10044000806886BF06B607FEFDCF81B1887F883100
:10045000E1F70895882394F0880F83B983B1816010
:1004600083B986B78F7D86BF86B7806886BF06B69C
:1004700007FEFDCF81B1887F8034E1F7089583B90D
:1004800086B7806886BF06B607FEFDCF81B1887F3C
:100490008832E1F70895FC01892B61F096B79068E6
:1004A00096BF06B607FEFDCF91B1987F9035E1F774
:1004B00083B18083089563E087E00E94A90063E030
:1004C00086E00E94A90063E085E00E94A90063E045
:1004D00083E00E94A90060E085E00E94A90060E03E
:1004E00084E00E94A90060E083E00E94A90060E02F
:1004F00082E00E94A900089585B38B7F85BB85B3F8
:10050000886085BB85B3806185BB85B3806285BB10
:10051000839B5CC0849B5CC0869B5CC0879B5CC0EB
:100520008FE99FE00197F1F700C0000085B3846078
:1005300085BB85B3877F85BB85B3806185BB85B36C
:10054000806285BB839B4AC0849B4AC0869B4AC00D
:10055000879B4AC08FE99FE00197F1F700C0000038
:1005600085B3846085BB85B3886085BB85B38F7E8A
:1005700085BB85B3806285BB839B38C0849B38C0B4
:10058000869B38C0879B38C08FE99FE00197F1F7C1
:1005900000C0000085B3846085BB85B3886085BBDF
:1005A00085B3806185BB85B38F7D85BB839B26C06A
:1005B000849B26C0869B26C0879B26C08FE99FE030
:1005C0000197F1F700C0000080E008958BE20895E4
:1005D0008DE3089580E3089583E608958DE20895FC
:1005E00083E3089582E3089581E308958AE20895FC
:1005F00086E3089585E3089584E308958FE20895DE
:1006000089E3089588E3089587E30895CF93C82F79
:10061000682F617088E00E943F01C1FB662760F986
:1006200089E00E943F01C2FB662760F98AE00E94D0
:100630003F01C3FB662760F987E00E943F01CF912D
:100640000895CF93C82F60E083E00E943F018C2F74
:1006500082958F700E94060361E082E00E943F0154
:100660008FE99FE00197F1F700C0000060E082E0B1
:100670000E943F018C2F0E94060361E082E00E94ED
:100680003F018FE99FE00197F1F700C0000060E0B3
:1006900082E00E943F01CF9108952FE785EB91E022
:1006A000215080409040E1F700C0000060E083E00E
:1006B0000E943F0182E00E94060361E082E00E9406
:1006C0003F018FE99FE00197F1F700C0000060E073
:1006D00082E00E943F0188E20E94210390EF9A95F8
:1006E000F1F78FE00E94210320EF2A95F1F781E0D6
:1006F0000E9421038FE39FE10197F1F700C0000002
:1007000086E00E9421030895CF93C82F61E083E023
:100710000E943F018C2F82958F700E94060361E03A
:1007200082E00E943F018FE99FE00197F1F700C04E
:10073000000060E082E00E943F018C2F0E940603CF
:1007400061E082E00E943F018FE99FE00197F1F7AD
:1007500000C0000060E082E00E943F01CF91089558
:100760000F931F93CF93DF938C01C0E0D0E003C0C1
:100770000E9484032196F801EC0FFD1F80818111F6
:10078000F7CFDF91CF911F910F91089581E00E94E3
:10079000210380E80E9421030895823089F018F433
:1007A000813031F00895833099F08430C1F008959C
:1007B0006031D8F4862F8F7080680E9421030895DD
:1007C000603198F4862F8F70806C0E942103089509
:1007D000603158F484E9860F0E9421030895603146
:1007E00020F484ED860F0E94210308958F929F923A
:1007F000AF92BF92CF92DF92EF92FF926B017C019A
:100800008AE0C816D104E104F10408F44CC084E67F
:10081000C816D104E104F10478F188EEC81683E02B
:10082000D806E104F104A0F0C701B60128EE33E0D8
:1008300040E050E00E94C00CCA01B9012AE030E05B
:1008400040E050E00E94C00C80E3860F0E948403C9
:10085000C701B60124E630E040E050E00E94C00C41
:10086000CA01B9012AE030E040E050E00E94C00C2B
:1008700080E3860F0E9484030F2EFAE08F2E912CC6
:10088000A12CB12CF02DC701B601A50194010E9445
:10089000C00CCA01B901A50194010E94C00C80E3FB
:1008A000860F0E948403C701B6012AE030E040E0D1
:1008B00050E00E94C00C80E3860F0E948403FF90EA
:1008C000EF90DF90CF90BF90AF909F908F90089562
:1008D0008BE990E00E94090C0E94050C8093820332
:1008E00089EF91E00E94090C80918203813431F0FC
:1008F000853521F0853711F0813619F481E0809338
:10090000A6038091A603813019F708950E942F0154
:100910000E949E000E944D030E9473010E945B0290
:100920000E94F30B0E944A0A0E947C0B0E945E0AFE
:100930000E94DB010E946B0A0E94880BD0E0C1E09C
:100940000DC0EC2FF0E0E058FF4F808144E065E9F6
:1009500073E090E00E947701CF5FDF5FD93088F3CA
:100960000E94680480918203853511F08537A1F4D7
:100970001092A4038EEA90E00E94B0032FEF83EC64
:1009800099E0215080409040E1F700C000000E94B3
:10099000C6030E946E07E4CF813411F0813601F75F
:1009A00081E08093A4030E94B308DACFCF930E9422
:1009B0007C02C82F03C00E947C02C82FCC23D9F32D
:1009C000CD3321F00E947C02C817E1F38C2FCF9128
:1009D000089580E00E94590A85E50E94590A60E066
:1009E00081E00E94CD0388EB90E00E94B00360E0BC
:1009F00082E00E94CD0389EC90E00E94B00360E0A9
:100A000083E00E94CD0386ED90E00E94B0030E9437
:100A1000D604823309F465C0833309F4A8C0813356
:100A200009F0BBC081E08093A5030E94C60387EE56
:100A300090E00E94B00360E082E00E94CD030E943B
:100A4000D6048233F1F0833321F0813309F0A5C05D
:100A500030C083E30E94590A81E08093A5030E947D
:100A6000C6038BEF90E00E94B0032FEF89E698E178
:100A7000215080409040E1F700C000000E94C60372
:100A80008CC082E30E94590A81E08093A5030E94F2
:100A9000C60380E191E00E94B0032FEF89E698E160
:100AA000215080409040E1F700C000000E94C60342
:100AB00074C081E30E94590A81E08093A5030E94DB
:100AC000C60384E291E00E94B0032FEF89E698E12B
:100AD000215080409040E1F700C000000E94C60312
:100AE0005CC084E10E94590A2FEF89E698E1215009
:100AF00080409040E1F700C0000080E00E94590A69
:100B00008093C70381E08093A5030E94C60387E317
:100B100091E00E94B0038091C7038D3128F083E4F7
:100B200091E00E94B00304C086E491E00E94B0030B
:100B300060E082E00E94CD038AE491E00E94B0036D
:100B40006091C70370E080E090E00E94F60380E5CA
:100B500091E00E94B0032FEF85EA9EE02150804093
:100B60009040E1F700C000000E94C60316C00E943A
:100B7000C60382E591E00E94B0032FEF85EA9EE074
:100B8000215080409040E1F700C000000E94C60361
:100B900081E08093A5038093A4038091A503813015
:100BA00009F017CF1092A5038091A403813009F0BA
:100BB00010CF0895CF93C0E031C00E94C60365E016
:100BC00081E00E94CD0385E691E00E94B00365E0DC
:100BD00082E00E94CD038FE691E00E94B00361E0C5
:100BE00086E10E943F0161E087E10E943F012FEF13
:100BF00082E597E0215080409040E1F700C000007E
:100C000060E087E10E943F012FEF86E791E02150ED
:100C100080409040E1F700C00000CF5FC43168F22F
:100C2000CF910895CF93C82F0E94C60389E791E022
:100C30000E94B0036C2F70E080E090E00E94F60309
:100C40002FEF85EA9EE0215080409040E1F700C000
:100C500000000E94C6030E94E904CF910895CF933B
:100C6000C62F1092A1031092A303EDE9F3E01082C6
:100C700011821282138280918A008111B0C00E9479
:100C8000DA05ADC00E94D6048093A20390E0FC0177
:100C9000F097EA30F10508F0A2C0E65DFF4F0C9432
:100CA000E20CE091A303F0E0E356FC4F81E0808387
:100CB0008AE20E9484038091A3038F5F8093A30341
:100CC0008EC0E091A303F0E0E356FC4F82E0808306
:100CD0008AE20E9484038091A3038F5F8093A30321
:100CE0007EC0E091A303F0E0E356FC4F83E08083F5
:100CF0008AE20E9484038091A3038F5F8093A30301
:100D00006EC0E091A303F0E0E356FC4F84E08083E3
:100D10008AE20E9484038091A3038F5F8093A303E0
:100D20005EC0E091A303F0E0E356FC4F85E08083D2
:100D30008AE20E9484038091A3038F5F8093A303C0
:100D40004EC0E091A303F0E0E356FC4F86E08083C1
:100D50008AE20E9484038091A3038F5F8093A303A0
:100D60003EC0E091A303F0E0E356FC4F87E08083B0
:100D70008AE20E9484038091A3038F5F8093A30380
:100D80002EC0E091A303F0E0E356FC4F88E080839F
:100D90008AE20E9484038091A3038F5F8093A30360
:100DA0001EC0E091A303F0E0E356FC4F89E080838E
:100DB0008AE20E9484038091A3038F5F8093A30340
:100DC0000EC0E091A303F0E0E356FC4F10828AE2EC
:100DD0000E9484038091A3038F5F8093A30380917B
:100DE000A303843008F44ECF1092C80314C0282FF8
:100DF00030E0F901E756FC4F4081F901E356FC4F22
:100E00009081491305C09091A1039F5F9093A10326
:100E10008F5F8093C8038091C803843040F3809132
:100E2000A103843049F48C2F0E9412061092A10372
:100E300083E080938A003AC00E94C60360E081E0AC
:100E40000E94CD0385EE91E00E94B00360E082E055
:100E50000E94CD038CE891E00E94B00360918A006B
:100E6000615060938A0070E080E090E00E94F60399
:100E70002FEF83EC99E0215080409040E1F700C0D3
:100E800000000E94C60389E991E00E94B0036C2F24
:100E900070E080E090E00E94F6038FEA91E00E940B
:100EA000B0036C2F89E993E00E942F06CF9108953B
:100EB000CF93DF93C82FD0E0FE01E058FF4F808131
:100EC00044E069E973E090E00E94A501BE0189E970
:100ED00093E00E942F06DF91CF9108950F931F9307
:100EE000CF938FE991E00E94B0030E94D604C0ED39
:100EF000C80F8153883008F041C08FEF8C0F8830C5
:100F000008F059C00C2F10E0F801ED57FC4F80811C
:100F10008130A1F40E94C60389E991E00E94B003E8
:100F20006C2F70E080E090E00E94F6038EEA91E082
:100F30000E94B003C8010E9458073DC081113BC008
:100F400060E082E00E94CD0389EB91E00E94B00353
:100F500060E083E00E94CD0389EC91E00E94B00341
:100F60002FEF83EC99E0215080409040E1F700C0E2
:100F700000000E94C6030E946E071DC00E94C603A7
:100F800062E081E00E94CD0384ED91E00E94B00315
:100F900065E082E00E94CD0384EE91E00E94B00300
:100FA0002FEF83EC99E0215080409040E1F700C0A2
:100FB00000000E94C603CF911F910F9108958D5795
:100FC0009C4FFC0110820895E82F90E00BC0292F60
:100FD00030E0D901A357BC4F8C91D901AF56BC4F1B
:100FE0008C939F5F943098F38E2F90E0FC013197A3
:100FF000E830F10508F043C0EC5CFF4F0C94E20CC4
:1010000044E061E973E080E090E00E947701089598
:1010100044E061E973E080E190E00E947701089587
:1010200044E061E973E080E290E00E947701089576
:1010300044E061E973E080E390E00E947701089565
:1010400044E061E973E080E490E00E947701089554
:1010500044E061E973E080E590E00E947701089543
:1010600044E061E973E080E690E00E947701089532
:1010700044E061E973E080E790E00E947701089521
:10108000CF93DF93D82FC0E05DC0EC2FF0E0E357A3
:10109000FC4F81E08083CF5F46C0EC2FF0E0E35748
:1010A000FC4F82E08083CF5F3EC0EC2FF0E0E3573F
:1010B000FC4F83E08083CF5F36C0EC2FF0E0E35736
:1010C000FC4F84E08083CF5F2EC0EC2FF0E0E3572D
:1010D000FC4F85E08083CF5F26C0EC2FF0E0E35724
:1010E000FC4F86E08083CF5F1EC0EC2FF0E0E3571B
:1010F000FC4F87E08083CF5F16C0EC2FF0E0E35712
:10110000FC4F88E08083CF5F0EC0EC2FF0E0E35708
:10111000FC4F89E08083CF5F06C0EC2FF0E0E357FF
:10112000FC4F1082CF5FC43069F489EF91E00E94D8
:10113000090C8CEE91E00E94090C8D2F90E00E942A
:10114000E4070EC00E94050C8093A20390E0FC010E
:10115000F097EA30F10538F7E45CFF4F0C94E20CAD
:10116000DF91CF9108950F931F93CF93DF9380E08A
:101170000E94590A81E40E94590A8BEF91E00E9473
:10118000090C89E092E00E94090C8AE192E00E9439
:10119000090C8CE292E00E94090C8DE392E00E941F
:1011A000090C88E592E00E94090C0E94050CC82FEA
:1011B00089EF91E00E94090C8C2F90E0FC01E15432
:1011C000F109E933F10508F055C1EA5BFF4F0C94D2
:1011D000E20C83E40E94590A8AE692E00E94090C1C
:1011E0000E94050CC82F89EF91E00E94090CC334BE
:1011F00011F0C336B9F48CE792E00E94090C83E445
:101200000E94590A833409F035C12FEF89E698E12D
:10121000215080409040E1F700C0000081E08093C1
:10122000A50328C1CF3619F0CF3409F023C189E8CE
:1012300092E00E94090C8FE40E94590A8F3409F051
:1012400019C12FEF89E698E1215080409040E1F7E5
:1012500000C0000081E08093A5030CC18CE40E94D3
:10126000590A86E992E00E94090C0E94050CC82FD9
:1012700089EF91E00E94090CC13611F0C13499F454
:1012800081E40E94590A813449F42FEF89E698E1FC
:10129000215080409040E1F700C0000088EA92E0D1
:1012A0000E94090C31C0C23611F0C234B9F482E494
:1012B0000E94590A823449F42FEF89E698E12150BF
:1012C00080409040E1F700C0000080EB92E00E9477
:1012D000090C8EEB92E00E94090C16C0C33611F087
:1012E000C33491F483E40E94590A833449F42FEF04
:1012F00089E698E1215080409040E1F700C000006D
:1013000089EC92E00E94090C81E08093A503B2C0B1
:1013100081E40E94590A82ED92E00E94090C80E06B
:101320000E94590AC82F83EE92E00E94090C8C2F6C
:1013300090E00E941E0C8AEE92E00E94090C80E070
:101340000E94590A8DEE92E00E94090CCD3128F0DE
:101350008CEA92E00E94090C04C08DEC92E00E949D
:10136000090C81E08093A50385C088EF92E00E947C
:10137000090C2FEF89E698E1215080409040E1F779
:1013800000C000001092A40381E08093A50372C006
:101390008DE093E00E94090C0E94050CC82F89EF94
:1013A00091E00E94090CD0EDDC0F8FEC8C0F88309F
:1013B000D0F48FEF8D0F8830D0F483E293E00E9459
:1013C000090C8C2F0E94FF0B88E293E00E94090C0D
:1013D0000D2F10E0C8010E944008F801ED57FC4FA6
:1013E00081E0808304C088E393E00E94090C81E0DF
:1013F0008093A5033FC08DE093E00E94090C0E94FA
:10140000050CC82F89EF91E00E94090C80ED8C0F2C
:101410009FEF9D0F983038F59FEF980F983038F573
:1014200090E0FC01ED57FC4F208121110CC083E2BC
:1014300093E00E94090C8C2F0E94FF0B83E593E040
:101440000E94090C14C0213091F40E94DF0783E24E
:1014500093E00E94090C8C2F0E94FF0B86E693E01C
:101460000E94090C04C088E393E00E94090C81E00B
:101470008093A5038091A503813009F078CE109266
:10148000A5038091A403811172CEDF91CF911F91AA
:101490000F91089587B3806287BB87B38F7B87BB2B
:1014A00087B3806887BB87B3806187BB83E58DB9CD
:1014B00008958FB9779BFECF8FB1089583B780646D
:1014C00083BF83B7886083BF83B78F7E83BF83B7B3
:1014D000806283BF089583B7816083BF83B78260D2
:1014E00083BF83B78B7F83BF08951F920F920FB680
:1014F0000F9211242F933F934F935F936F937F939A
:101500008F939F93AF93BF93EF93FF938091A90322
:101510009091AA0301969093AA038093A9038A3815
:10152000994069F488E982BF1092AA031092A90336
:10153000E091AD03F091AE03309709F00995FF916A
:10154000EF91BF91AF919F918F917F916F915F913B
:101550004F913F912F910F900FBE0F901F901895B4
:101560001F920F920FB60F9211242F933F934F9318
:101570005F936F937F938F939F93AF93BF93EF93FB
:10158000FF938091A7039091A80301969093A803DD
:101590008093A7032091AF033091B0038217930784
:1015A00059F41092A8031092A703E091AB03F091B5
:1015B000AC03309709F00995FF91EF91BF91AF917E
:1015C0009F918F917F916F915F914F913F912F915B
:1015D0000F900FBE0F901F9018951F920F920FB68D
:1015E0000F9211242F933F934F935F936F937F93A9
:1015F0008F939F93AF93BF93EF93FF93E091B703C4
:10160000F091B803309709F00995FF91EF91BF91E0
:10161000AF919F918F917F916F915F914F913F918A
:101620002F910F900FBE0F901F9018951F920F9241
:101630000FB60F9211242F933F934F935F936F93A5
:101640007F938F939F93AF93BF93EF93FF9380917B
:10165000B1039091B20301969093B2038093B103CA
:101660002091B3033091B4038217930759F4109279
:10167000B2031092B103E091B703F091B803309731
:1016800009F00995FF91EF91BF91AF919F918F91D3
:101690007F916F915F914F913F912F910F900FBE6E
:1016A0000F901F9018951F920F920FB60F92112452
:1016B0002F933F934F935F936F937F938F939F935A
:1016C000AF93BF93EF93FF93E091B503F091B6030F
:1016D000309709F00995FF91EF91BF91AF919F91DC
:1016E0008F917F916F915F914F913F912F910F90CB
:1016F0000FBE0F901F90189585B58F7B85BD85B562
:10170000877F85BD81E784BD89B7806489BF0895DF
:1017100085B5816085BD85B5826085BD85B58B7FCA
:1017200085BD08951F920F920FB60F9211242F932B
:101730003F934F935F936F937F938F939F93AF9359
:10174000BF93EF93FF938091BB039091BC030196ED
:101750009093BC038093BB03813D934069F4109246
:10176000BC031092BB0381E784BDE091BF03F091FD
:10177000C003309709F00995FF91EF91BF91AF91A8
:101780009F918F917F916F915F914F913F912F9199
:101790000F900FBE0F901F9018951F920F920FB6CB
:1017A0000F9211242F933F938F939F938091B903AE
:1017B0009091BA0301969093BA038093B903209154
:1017C000BD033091BE038217930721F41092BA0330
:1017D0001092B9039F918F913F912F910F900FBE5F
:1017E0000F901F90189587E689B98AB188618AB9E8
:1017F00080B5866080BD80B5806480BD08955D9BA6
:10180000FECF8CB95E9BFECF08955F9BFECF8CB15F
:1018100008950F931F93CF938C01C0E003C00E94E3
:10182000FF0BCF5FF801EC0FF11D80818111F7CF25
:101830000E94FF0BCF911F910F9108950F931F935B
:10184000CF93DF93CDB7DEB72A970FB6F894DEBFFC
:101850000FBECDBF9F938F938DE793E09F938F93A0
:101860008E010F5F1F4F1F930F930E94E80CC8015A
:101870000E94090C0F900F900F900F900F900F90F7
:101880002A960FB6F894DEBF0FBECDBFDF91CF9181
:101890001F910F9108951F920F920FB60F9211246E
:1018A0002F933F934F935F936F937F938F939F9368
:1018B000AF93BF93EF93FF93E091C503F091C603FD
:1018C0000995FF91EF91BF91AF919F918F917F917A
:1018D0006F915F914F913F912F910F900FBE0F909D
:1018E0001F9018951F920F920FB60F9211242F93ED
:1018F0003F934F935F936F937F938F939F93AF9398
:10190000BF93EF93FF93E091C303F091C403099554
:10191000FF91EF91BF91AF919F918F917F916F91C7
:101920005F914F913F912F910F900FBE0F901F909D
:1019300018951F920F920FB60F9211242F933F9379
:101940004F935F936F937F938F939F93AF93BF93C7
:10195000EF93FF93E091C103F091C2030995FF91CA
:10196000EF91BF91AF919F918F917F916F915F9117
:101970004F913F912F910F900FBE0F901F90189590
:10198000A1E21A2EAA1BBB1BFD010DC0AA1FBB1F83
:10199000EE1FFF1FA217B307E407F50720F0A21BF5
:1019A000B30BE40BF50B661F771F881F991F1A9462
:1019B00069F760957095809590959B01AC01BD018C
:1019C000CF010895EE0FFF1F0590F491E02D0994CB
:1019D000AEE0B0E0EEEEFCE00C94A90F0D891E899C
:1019E00086E08C831A8309838FEF9FE79E838D8324
:1019F000AE01475E5F4F6F89788DCE0101960E94E0
:101A00000A0DEF81F885E00FF11F10822E96E4E0B9
:101A10000C94C50FABE0B0E0E0E1FDE00C949B0F4F
:101A20006C017B018A01FC0117821682838181FF90
:101A3000CCC1CE0101963C01F6019381F70193FDE3
:101A4000859193FF81917F01882309F4BAC1853282
:101A500039F493FD859193FF81917F01853229F4BB
:101A6000B60190E00E94010FE7CF912C212C312C80
:101A7000FFE1F315D8F08B3279F038F4803279F049
:101A80008332A1F4232D20611DC08D3261F080339B
:101A900069F4232D216016C0832D8260382EE32D3A
:101AA000E4603E2E2AC0F32DF8601DC037FC2DC027
:101AB00020ED280F2A3040F08E32B9F436FC81C177
:101AC000232D2064322E19C036FE06C08AE0989E6F
:101AD000200D1124922E11C0EAE02E9E200D11241B
:101AE000222EF32DF0623F2E08C08C3621F4832D78
:101AF0008068382E02C0883641F4F70193FD859145
:101B000093FF81917F018111B3CF982F9F7D9554D1
:101B1000933028F40C5F1F4F9FE399830DC08336E9
:101B200031F0833771F0833509F059C021C0F801D5
:101B3000808189830E5F1F4F88248394912C5301E9
:101B400013C02801F2E04F0E511CF801A080B180B3
:101B500036FE03C0692D70E002C06FEF7FEFC50154
:101B60000E94F60E4C018201F32DFF773F2E16C026
:101B7000280122E0420E511CF801A080B18036FEFF
:101B800003C0692D70E002C06FEF7FEFC5010E94B6
:101B9000EB0E4C01F32DF0683F2E820133FC1BC08D
:101BA000822D90E088169906B0F4B60180E290E0AC
:101BB0000E94010F2A94F4CFF50137FC859137FE7E
:101BC00081915F01B60190E00E94010F21102A94DB
:101BD00021E0821A91088114910471F7E8C08436DB
:101BE00011F0893641F5F80137FE07C06081718137
:101BF000828193810C5F1F4F08C060817181072E25
:101C0000000C880B990B0E5F1F4FF32DFF763F2EB4
:101C100097FF09C090958095709561957F4F8F4F84
:101C20009F4FF0683F2E2AE030E0A3010E943D0F55
:101C3000882E861845C0853731F4232D2F7EB22E8D
:101C40002AE030E025C0932D997FB92E8F36C1F060
:101C500018F4883579F0B5C0803719F0883721F04D
:101C6000B0C0E92FE061BE2EB4FE0DC0FB2DF460C4
:101C7000BF2E09C034FE0AC0292F2660B22E06C02E
:101C800028E030E005C020E130E002C020E132E091
:101C9000F801B7FE07C060817181828193810C5F7A
:101CA0001F4F06C06081718180E090E00E5F1F4F82
:101CB000A3010E943D0F882E8618FB2DFF773F2E33
:101CC00036FE0DC0232D2E7FA22E891458F434FE2B
:101CD0000BC032FC09C0832D8E7EA82E05C0B82C07
:101CE000A32C03C0B82C01C0B92CA4FE0FC0FE0168
:101CF000E80DF11D8081803321F49A2D997EA92E63
:101D000009C0A2FE06C0B394B39404C08A2D86789D
:101D100009F0B394A3FC11C0A0FE06C0B21488F46D
:101D2000280C922C9B180EC0B21460F4B60180E20D
:101D300090E00E94010FB394F7CFB21418F42B185F
:101D400002C0982C212CA4FE10C0B60180E390E0C4
:101D50000E94010FA2FE17C0A1FC03C088E790E01B
:101D600002C088E590E0B6010CC08A2D867859F053
:101D7000A1FE02C08BE201C080E2A7FC8DE2B601A9
:101D800090E00E94010F891438F4B60180E390E0DE
:101D90000E94010F9A94F7CF8A94F301E80DF11D88
:101DA0008081B60190E00E94010F8110F5CF2220C2
:101DB00009F442CEB60180E290E00E94010F2A941D
:101DC000F6CFF6018681978102C08FEF9FEF2B96A9
:101DD000E2E10C94B70FFC010590615070400110D6
:101DE000D8F7809590958E0F9F1F0895FC01615044
:101DF000704001900110D8F7809590958E0F9F1F2D
:101E000008950F931F93CF93DF93FB01238121FD4F
:101E100003C08FEF9FEF2CC022FF16C04681578171
:101E2000248135814217530744F4A081B1819D017B
:101E30002F5F3F4F318320838C93268137812F5F23
:101E40003F4F3783268314C08B01EC01FB010084D4
:101E5000F185E02D0995892BE1F6D80116968D9133
:101E60009C911797019617969C938E931697CE0187
:101E7000DF91CF911F910F910895FA01AA27283081
:101E800051F1203181F1E8946F936E7F6E5F7F4F47
:101E90008F4F9F4FAF4FB1E03ED0B4E03CD0670FC3
:101EA000781F891F9A1FA11D680F791F8A1F911D16
:101EB000A11D6A0F711D811D911DA11D20D009F466
:101EC00068943F912AE0269F11243019305D3193A8
:101ED000DEF6CF010895462F4770405D4193B3E091
:101EE0000FD0C9F7F6CF462F4F70405D4A3318F038
:101EF000495D31FD4052419302D0A9F7EACFB4E0E9
:101F0000A6959795879577956795BA95C9F70097A0
:101F10006105710508959B01AC010A2E0694579541
:101F2000479537952795BA95C9F7620F731F841F98
:101F3000951FA01D08952F923F924F925F926F922E
:101F40007F928F929F92AF92BF92CF92DF92EF9249
:101F5000FF920F931F93CF93DF93CDB7DEB7CA1BCA
:101F6000DB0B0FB6F894DEBF0FBECDBF09942A88F5
:101F7000398848885F846E847D848C849B84AA849D
:101F8000B984C884DF80EE80FD800C811B81AA812A
:101F9000B981CE0FD11D0FB6F894DEBF0FBECDBFF5
:081FA000ED010895F894FFCF54
:101FA8000003000000000000000000000000000026
:101FB80001010101010100000301030303010303FF
:101FC80000001020304050607080033A0037003421
:101FD8000031003B0038003500320053656C656302
:101FE80074204D6F64652028552F41290D005573C5
:101FF8006572204D6F6465004C656420496E746598
:102008006E736974792D3E31004143207374617495
:10201800652D3E203200537769746368206D6F64C4
:1020280065202D3E2033004C6576656C2031207C80
:102038007C2032207C7C2033203F004C45442069A2
:102048006E74656E73697479203D203130302500D7
:102058004C454420696E74656E73697479203D201F
:10206800353025004C454420696E74656E7369747B
:1020780079203D2030250041432073746174652028
:102088003D20004F4E004F46460054656D703A00A3
:10209800430055736572206D6F64652073776974AA
:1020A8006368656400215741524E494E4721002A12
:1020B8002A2A2A2A2A2A2A2A0057454C434F4D45BC
:1020C800204241434B2C55534552200054726961BC
:1020D8006C73206C6566743A005573657220004510
:1020E8006E74657220557365722049443A00205019
:1020F800617373776F72643A005468697320494456
:10210800206973206E6F742000417661696C61628A
:102118006C652100546869732075736572204944A1
:10212800206973002057726F6E67210050617373C6
:10213800776F726420534554210D00416464205523
:10214800736572202855290D0044656C65746520F7
:1021580055736572202844290D00446F6F722063FF
:102168006F6E74726F6C202843290D004C656420D3
:10217800636F6E74726F6C20284C290D0041697270
:1021880020436F6E646974696F6E65722073746141
:102198007465202841290D00537769746368206DA0
:1021A8006F64653F202859290D00446F6F722053D2
:1021B800746174652028432F4F290D00446F6F7296
:1021C80020436C6F7365640D00446F6F72204F700D
:1021D800656E65640D004C6967687420696E746586
:1021E8006E736974793F0D004C6564204F4E0D0085
:1021F8004C6F776572696E67204C65642000496E84
:1022080074656E736974790D004C6564204F464699
:102218000D0041697220436F6E646974696F6E6561
:10222800720D0054656D703A2000430D0041432043
:1022380073746174653A200041646D696E204D6F56
:1022480064652053776974636865640D00456E742E
:1022580065722055534552204944203120746F201F
:10226800380D005553522000204E65772050617379
:1022780073776F72643A0D005468697320757365DB
:10228800722069736E277420617661696C61626C73
:10229800650D0020416C72656164792044656C6548
:1022A800746564210D002044656C65746564205371
:1022B80075636365737366756C6C790D00257500BD
:00000001FF
