S0180000536D6172745F486F6D655F536C6176652E73726563C3
S11300000C942A000C9447000C9447000C9447006D
S11300100C949F040C9464040C941E040C94E1034B
S11300200C9447000C94B8030C947B030C94400389
S11300300C9447000C94F8040C941F050C94D10400
S11300400C9459000C9447000C9447000C944700FE
S11300500C94470011241FBECFE5D8E0DEBFCDBF0E
S113006010E0A0E6B0E0E4E0FFE002C005900D92ED
S1130070A039B107D9F720E0A0E9B0E001C01D9292
S1130080A33BB207E1F70E94D1010C9480070C94C2
S113009000008FE886B90895806487B986B18064CA
S11300A086B9349BFECF86B1806186B984B195B19F
S11300B00895E0919000F0919100309709F009952E
S11300C00895282F2695269526958770613009F482
S11300D03FC008F45CC0623021F1633009F076C09F
S11300E030E0220F331FF901E058FF4F0190F081F7
S11300F0E02D41E050E0BA0102C0660F771F8A95F7
S1130100E2F7CB01962F9095408194239083F901D7
S1130110E857FF4F0190F081E02D9081892B808377
S11301200895E22FF0E0EE0FFF1FE058FF4F01901B
S1130130F081E02D21E030E0A90102C0440F551FF9
S11301408A95E2F7CA018095908189238083089576
S113015030E0220F331FF901E058FF4F0190F08186
S1130160E02D41E050E0BA0102C0660F771F8A9586
S1130170E2F7CB019081982B9083F901E857FF4F68
S11301800190F081E02D9081892B8083089530E0E7
S1130190220F331FF901E058FF4F0190F081E02D49
S11301A041E050E0BA0102C0660F771F8A95E2F77A
S11301B0CB019081982B9083F901E857FF4F019070
S11301C0F081E02D80959081892380830895CF93D9
S11301D0C0E009C0EC2FF0E0E05AFF4F60818C2FA3
S11301E00E946100CF5FC032A8F3CF910895E82F39
S11301F0E695E695E69587706130A9F4F0E0EE0F98
S1130200FF1FE857FF4F0190F081E02D21E030E01F
S1130210A90102C0440F551F8A95E2F7CA019081D3
S1130220892B80830895611115C0F0E0EE0FFF1F44
S1130230E857FF4F0190F081E02D21E030E0A90163
S113024002C0440F551F8A95E2F7CA018095908138
S11302508923808308958FB780688FBF089563E0F2
S113026087E00E94610063E086E00E94610063E031
S113027085E00E94610063E083E00E94610060E029
S113028085E00E94610060E084E00E94610060E01B
S113029083E00E94610060E082E00E9461000895B2
S11302A0CF93C82F682F617088E00E94F700C1FBCC
S11302B0662760F989E00E94F700C2FB662760F9AF
S11302C08AE00E94F700C3FB662760F98CE00E9475
S11302D0F700CF910895CF93C82F60E083E00E9488
S11302E0F7008C2F82958F700E94500161E082E0AC
S11302F00E94F7008FE99FE00197F1F700C000002A
S113030060E082E00E94F7008C2F0E94500161E0BF
S113031082E00E94F7008FE99FE00197F1F700C0A7
S1130320000060E082E00E94F700CF9108952FE77B
S113033085EB91E0215080409040E1F700C000003F
S113034060E083E00E94F70082E00E94500161E0D7
S113035082E00E94F7008FE99FE00197F1F700C067
S1130360000060E082E00E94F70088E20E946B01D6
S113037090EF9A95F1F78FE00E946B0120EF2A9598
S1130380F1F781E00E946B018FE39FE10197F1F7A0
S113039000C0000086E00E946B0108950E949E0246
S11303A008950E94E7000E9449000E9497010E945C
S11303B02F010E94C5040E94B0020E9447040E94BB
S11303C016030E942B010E9423030E9453048EEC07
S11303D091E00E945D0480E00E94BB02813409F038
S11303E059C0809192008D3328F061E080E10E9431
S11303F0F70004C060E080E10E94F70080E00E9402
S1130400BB02833499F480E00E94BB028F3431F440
S11304100E94BB0284EB0E94C002D9CF8334B9F698
S11304200E94BB028AE50E94C002D1CF8C34E1F461
S113043080E00E94BB02813431F40E94BB0284E656
S11304400E948102C4CF823431F40E94BB0288E24C
S11304500E948102BCCF833409F0B9CF0E94BB0251
S113046081E00E948102B3CF813409F0B0CF809142
S113047092000E94BB02803309F0A9CFCC9904C03A
S11304808FE40E94BB02A3CFCC9BA1CF83E40E9444
S1130490BB029DCF853509F09ACF809192008D33B0
S11304A028F061E080E10E94F70004C060E080E190
S11304B00E94F70080E00E94BB028133A9F018F487
S11304C08431B1F084CF823359F0833309F07FCF84
S11304D061E088E00E94F70084E60E94810277CF01
S11304E082E30E94810273CF81E00E9481026FCF78
S11304F0809192000E94BB0261E088E00E94F700B4
S113050066CF90E00E942D03089581E00E944C0084
S11305109C01A8E8B3E10E9471072FEF33E040E0AB
S113052050E00E944F07ADECBCEC0E947107969519
S11305308795969587959695879508950E94850247
S113054080939200809192008D3128F061E084E0E4
S11305500E94F700089560E084E00E94F700089587
S113056087B387BB87B387BB87B387BB87B387BB97
S113057083E48DB908958FB9779BFECF8FB1089529
S1130580CF92DF92EF92FF929FB59E7F9FBD9FB562
S113059092609FBD9EB598609EBD9EB590619EBDC4
S11305A09FB59F7B9FBD9FB590689FBD27E833E1B2
S11305B037BD26BD682F70E080E090E00E945406AD
S11305C020E030E040EA50E40E94E20620E030E01F
S11305D044E353E40E94B30520E030E040EA50E4F1
S11305E00E9447056B017C0166B577B580E090E019
S11305F00E945406A70196010E94E20620E030E022
S113060048EC52E40E94B3050E9425067BBD6ABDF6
S11306108EB581608EBD8EB582608EBD8EB58B7FAA
S11306208EBDFF90EF90DF90CF90089583B78064E4
S113063083BF83B7886083BF83B78F7E83BF83B74D
S1130640806283BF089583B7816083BF83B782606C
S113065083BF83B78B7F83BF0895853680F4282FAB
S113066030E0322F22273695279536952795ABE72C
S1130670B4E10E9471079695879581508CBF0895C7
S11306801F920F920FB60F9211242F933F934F9303
S11306905F936F937F938F939F93AF93BF93EF93E6
S11306A0FF93809195009091960001969093960007
S11306B0809395008A38994069F488E982BF109242
S11306C0960010929500E0919900F0919A0030976D
S11306D009F00995FF91EF91BF91AF919F918F918F
S11306E07F916F915F914F913F912F910F900FBE2A
S11306F00F901F9018951F920F920FB60F9211240E
S11307002F933F934F935F936F937F938F939F9315
S1130710AF93BF93EF93FF938091930090919400D4
S11307200196909394008093930020919B003091C4
S11307309C008217930759F410929400109293002E
S1130740E0919700F0919800309709F00995FF9196
S1130750EF91BF91AF919F918F917F916F915F9135
S11307604F913F912F910F900FBE0F901F901895AE
S11307701F920F920FB60F9211242F933F934F9312
S11307805F936F937F938F939F93AF93BF93EF93F5
S1130790FF93E091A300F091A400309709F009952C
S11307A0FF91EF91BF91AF919F918F917F916F9145
S11307B05F914F913F912F910F900FBE0F901F901B
S11307C018951F920F920FB60F9211242F933F93F7
S11307D04F935F936F937F938F939F93AF93BF9345
S11307E0EF93FF9380919D0090919E0001969093CA
S11307F09E0080939D0020919F003091A00082175D
S1130800930759F410929E0010929D00E091A3006A
S1130810F091A400309709F00995FF91EF91BF91F1
S1130820AF919F918F917F916F915F914F913F9184
S11308302F910F900FBE0F901F9018951F920F923B
S11308400FB60F9211242F933F934F935F936F939F
S11308507F938F939F93AF93BF93EF93FF93E09115
S1130860A100F091A200309709F00995FF91EF9152
S1130870BF91AF919F918F917F916F915F914F91B4
S11308803F912F910F900FBE0F901F90189585B533
S11308908F7B85BD85B5877F85BD81E784BD89B79D
S11308A0806489BF089585B5816085BD85B5826002
S11308B085BD85B58B7F85BD0895009721F0909304
S11308C0AC008093AB0008951F920F920FB60F9265
S11308D011242F933F934F935F936F937F938F9341
S11308E09F93AF93BF93EF93FF938091A700909151
S11308F0A80001969093A8008093A700813D93409F
S113090069F41092A8001092A70081E784BDE091D9
S1130910AB00F091AC00309709F00995FF91EF918D
S1130920BF91AF919F918F917F916F915F914F9103
S11309303F912F910F900FBE0F901F9018951F920B
S11309400F920FB60F9211242F933F938F939F937F
S11309508091A5009091A60001969093A6008093A3
S1130960A5002091A9003091AA008217930721F4D1
S11309701092A6001092A5009F918F913F912F9104
S11309800F900FBE0F901F90189587E689B98AB112
S113099088618AB980B5866080BD80B5806480BD79
S11309A008951F920F920FB60F9211242F933F9325
S11309B04F935F936F937F938F939F93AF93BF9363
S11309C0EF93FF93E091B100F091B2000995FF918C
S11309D0EF91BF91AF919F918F917F916F915F91B3
S11309E04F913F912F910F900FBE0F901F9018952C
S11309F01F920F920FB60F9211242F933F934F9390
S1130A005F936F937F938F939F93AF93BF93EF9372
S1130A10FF93E091AF00F091B0000995FF91EF9141
S1130A20BF91AF919F918F917F916F915F914F9102
S1130A303F912F910F900FBE0F901F9018951F920A
S1130A400F920FB60F9211242F933F934F935F93FE
S1130A506F937F938F939F93AF93BF93EF93FF9382
S1130A60E091AD00F091AE000995FF91EF91BF9137
S1130A70AF919F918F917F916F915F914F913F9132
S1130A802F910F900FBE0F901F9018955058BB27B1
S1130A90AA270E945E050C94A8060E949A0638F0C4
S1130AA00E94A10620F039F49F3F19F426F40C9417
S1130AB097060EF4E095E7FB0C949106E92F0E944B
S1130AC0B90658F3BA17620773078407950720F02D
S1130AD079F4A6F50C94DB060EF4E0950B2EBA2FF0
S1130AE0A02D0B01B90190010C01CA01A001112430
S1130AF0FF27591B99F0593F50F4503E68F11A16DC
S1130B00F040A22F232F342F4427585FF3CF46956C
S1130B1037952795A795F0405395C9F77EF41F168E
S1130B20BA0B620B730B840BBAF09150A1F0FF0F58
S1130B30BB1F661F771F881FC2F70EC0BA0F621F44
S1130B40731F841F48F4879577956795B795F79534
S1130B509E3F08F0B0CF9395880F08F09927EE0FC9
S1130B609795879508950E94C7050C94A8060E943E
S1130B70A10658F00E949A0640F029F45F3F29F03C
S1130B800C94910651110C94DC060C9497060E9467
S1130B90B90668F39923B1F3552391F3951B550BCB
S1130BA0BB27AA2762177307840738F09F5F5F4F3C
S1130BB0220F331F441FAA1FA9F335D00E2E3AF07B
S1130BC0E0E832D091505040E695001CCAF72BD093
S1130BD0FE2F29D0660F771F881FBB1F26173707E4
S1130BE04807AB07B0E809F0BB0B802DBF01FF2716
S1130BF093585F4F3AF09E3F510578F00C9491065C
S1130C000C94DC065F3FE4F3983ED4F38695779525
S1130C106795B795F7959F5FC9F7880F911D9695CE
S1130C20879597F90895E1E0660F771F881FBB1F2A
S1130C30621773078407BA0720F0621B730B840BD7
S1130C40BA0BEE1F88F7E09508950E94C10688F05C
S1130C509F5798F0B92F9927B751B0F0E1F0660F7C
S1130C60771F881F991F1AF0BA95C9F714C0B130BD
S1130C7091F00E94DB06B1E008950C94DB06672F27
S1130C80782F8827B85F39F0B93FCCF386957795EC
S1130C906795B395D9F73EF49095809570956195D5
S1130CA07F4F8F4F9F4F0895E89409C097FB3EF400
S1130CB090958095709561957F4F8F4F9F4F9923A5
S1130CC0A9F0F92F96E9BB279395F6958795779523
S1130CD06795B795F111F8CFFAF4BB0F11F460FFE3
S1130CE01BC06F5F7F4F8F4F9F4F16C0882311F03B
S1130CF096E911C0772321F09EE8872F762F05C04F
S1130D00662371F096E8862F70E060E02AF09A95E9
S1130D10660F771F881FDAF7880F9695879597F9DE
S1130D20089597F99F6780E870E060E008959FEF69
S1130D3080EC089500240A9416161706180609066E
S1130D40089500240A94121613061406050608953D
S1130D50092E0394000C11F4882352F0BB0F40F4C5
S1130D60BF2B11F460FF04C06F5F7F4F8F4F9F4F05
S1130D70089557FD9058440F551F59F05F3F71F087
S1130D804795880F97FB991F61F09F3F79F08795EE
S1130D900895121613061406551FF2CF4695F1DF77
S1130DA008C0161617061806991FF1CF8695710507
S1130DB0610508940895E894BB2766277727CB013B
S1130DC097F908950E94F5060C94A8060E949A06C5
S1130DD038F00E94A10620F0952311F00C9491069E
S1130DE00C94970611240C94DC060E94B90670F347
S1130DF0959FC1F3950F50E0551F629FF001729FBC
S1130E00BB27F00DB11D639FAA27F00DB11DAA1FCA
S1130E10649F6627B00DA11D661F829F2227B00D17
S1130E20A11D621F739FB00DA11D621F839FA00DA2
S1130E30611D221F749F3327A00D611D231F849FF2
S1130E40600D211D822F762F6A2F11249F57504049
S1130E509AF0F1F088234AF0EE0FFF1FBB1F661FC4
S1130E60771F881F91505040A9F79E3F510580F08D
S1130E700C9491060C94DC065F3FE4F3983ED4F3A3
S1130E80869577956795B795F795E7959F5FC1F731
S1130E90FE2B880F911D9695879597F90895A1E2E9
S1130EA01A2EAA1BBB1BFD010DC0AA1FBB1FEE1FE0
S1130EB0FF1FA217B307E407F50720F0A21BB30B2B
S1130EC0E40BF50B661F771F881F991F1A9469F7A7
S1130ED060957095809590959B01AC01BD01CF0103
S1130EE00895A29FB001B39FC001A39F700D811DFF
S1130EF01124911DB29F700D811D1124911D08951F
S1070F00F894FFCF8F
S1130F0400030000000000000000000000000000D6
S1130F1401010101010100020301030303010303AD
S1130F243A003700340031003B0038003500320009
S9030000FC
